{
  "contractName": "Condition",
  "abi": [
    {
      "constant": true,
      "inputs": [
        {
          "name": "_response",
          "type": "address"
        }
      ],
      "name": "isComplete",
      "outputs": [
        {
          "name": "complete",
          "type": "bool"
        }
      ],
      "payable": false,
      "stateMutability": "view",
      "type": "function"
    },
    {
      "constant": false,
      "inputs": [
        {
          "name": "_minimumResponseOKCount",
          "type": "uint256"
        }
      ],
      "name": "setMinimumResponseOKCount",
      "outputs": [],
      "payable": false,
      "stateMutability": "nonpayable",
      "type": "function"
    },
    {
      "constant": true,
      "inputs": [],
      "name": "minimumResponseOKCount",
      "outputs": [
        {
          "name": "",
          "type": "uint256"
        }
      ],
      "payable": false,
      "stateMutability": "view",
      "type": "function"
    },
    {
      "inputs": [
        {
          "name": "_minimumResponseOKCount",
          "type": "uint256"
        }
      ],
      "payable": false,
      "stateMutability": "nonpayable",
      "type": "constructor"
    }
  ],
  "bytecode": "0x60606040526001600055341561001457600080fd5b6040516020806102f18339810160405280805190602001909190505080600081905550506102aa806100476000396000f300606060405260043610610056576000357c0100000000000000000000000000000000000000000000000000000000900463ffffffff168062c330a71461005b5780635cea68cf146100ac5780639cdfaf3b146100cf575b600080fd5b341561006657600080fd5b610092600480803573ffffffffffffffffffffffffffffffffffffffff169060200190919050506100f8565b604051808215151515815260200191505060405180910390f35b34156100b757600080fd5b6100cd600480803590602001909190505061026e565b005b34156100da57600080fd5b6100e2610278565b6040518082815260200191505060405180910390f35b60008060008060008093508573ffffffffffffffffffffffffffffffffffffffff1663130c17116000604051602001526040518163ffffffff167c0100000000000000000000000000000000000000000000000000000000028152600401602060405180830381600087803b151561016f57600080fd5b6102c65a03f1151561018057600080fd5b505050604051805190509250600091505b82821015610260578573ffffffffffffffffffffffffffffffffffffffff16634dbc5f58836000604051602001526040518263ffffffff167c010000000000000000000000000000000000000000000000000000000002815260040180828152602001915050602060405180830381600087803b151561021057600080fd5b6102c65a03f1151561022157600080fd5b5050506040518051905090506000811415610253578380600101945050600054841015156102525760019450610265565b5b8180600101925050610191565b600094505b50505050919050565b8060008190555050565b600054815600a165627a7a72305820bc54a142f9b31622fe4a9cef621197bbe6a1dbc2566ee7d74db5039c13e4bc220029",
  "source": "pragma solidity ^0.4.17;\n\nimport './Response.sol';\n\n// Simple Condition contract that the function isComplete is true when minimum\n// response OK count is met. This is pretty much and condition only.\ncontract Condition {\n  uint public minimumResponseOKCount = 1;\n\n  function Condition(uint _minimumResponseOKCount) public {\n    minimumResponseOKCount = _minimumResponseOKCount;\n  }\n\n  function setMinimumResponseOKCount(uint _minimumResponseOKCount) public {\n    minimumResponseOKCount = _minimumResponseOKCount;\n  }\n\n  function isComplete(Response _response) public view\n      returns (bool complete) {\n    uint responseOKCount = 0;\n    uint responseCount;\n    uint responseIndex;\n    uint responseCode;\n    responseCount = _response.getResponseCount();\n    for (responseIndex = 0; responseIndex < responseCount; responseIndex++) {\n      responseCode = _response.getResponseCodeAtIndex(responseIndex);\n      if (responseCode == 0) {\n        responseOKCount++;\n        if (responseOKCount >= minimumResponseOKCount) {\n          return true;\n        }\n      }\n    }\n    return false;\n  }\n}\n",
  "sourcePath": "/Users/tanee/verde-all/verde-ethereum/contracts/Condition.sol",
  "compiler": {
    "name": "solc",
    "version": "0.4.18+commit.9cf6e910.Emscripten.clang"
  },
  "schemaVersion": "1.0.1",
  "updatedAt": "2018-02-24T08:24:41.658Z"
}