{
  "contractName": "Requests",
  "abi": [
    {
      "constant": false,
      "inputs": [
        {
          "name": "requestID",
          "type": "address"
        },
        {
          "name": "code",
          "type": "uint256"
        },
        {
          "name": "message",
          "type": "bytes32"
        }
      ],
      "name": "addIdpResponse",
      "outputs": [],
      "payable": false,
      "stateMutability": "nonpayable",
      "type": "function"
    },
    {
      "constant": true,
      "inputs": [],
      "name": "getRequestCount",
      "outputs": [
        {
          "name": "count",
          "type": "uint256"
        }
      ],
      "payable": false,
      "stateMutability": "view",
      "type": "function"
    },
    {
      "constant": false,
      "inputs": [
        {
          "name": "_userAddress",
          "type": "address"
        },
        {
          "name": "_requestText",
          "type": "string"
        }
      ],
      "name": "createRequest",
      "outputs": [
        {
          "name": "requestID",
          "type": "address"
        }
      ],
      "payable": false,
      "stateMutability": "nonpayable",
      "type": "function"
    },
    {
      "constant": true,
      "inputs": [
        {
          "name": "index",
          "type": "uint256"
        }
      ],
      "name": "getRequest",
      "outputs": [
        {
          "name": "request",
          "type": "address"
        }
      ],
      "payable": false,
      "stateMutability": "view",
      "type": "function"
    },
    {
      "anonymous": false,
      "inputs": [
        {
          "indexed": false,
          "name": "rpAddress",
          "type": "address"
        },
        {
          "indexed": false,
          "name": "requestContract",
          "type": "address"
        },
        {
          "indexed": false,
          "name": "index",
          "type": "uint256"
        }
      ],
      "name": "LogNewRequest",
      "type": "event"
    },
    {
      "anonymous": false,
      "inputs": [
        {
          "indexed": false,
          "name": "rpAddress",
          "type": "address"
        },
        {
          "indexed": false,
          "name": "userAddress",
          "type": "address"
        },
        {
          "indexed": false,
          "name": "requestText",
          "type": "string"
        },
        {
          "indexed": false,
          "name": "requestID",
          "type": "address"
        }
      ],
      "name": "LogRequest",
      "type": "event"
    },
    {
      "anonymous": false,
      "inputs": [
        {
          "indexed": false,
          "name": "requestID",
          "type": "address"
        },
        {
          "indexed": false,
          "name": "code",
          "type": "string"
        },
        {
          "indexed": false,
          "name": "message",
          "type": "string"
        }
      ],
      "name": "AuthenticationComplete",
      "type": "event"
    },
    {
      "anonymous": false,
      "inputs": [
        {
          "indexed": false,
          "name": "requestID",
          "type": "address"
        },
        {
          "indexed": false,
          "name": "code",
          "type": "string"
        },
        {
          "indexed": false,
          "name": "message",
          "type": "string"
        }
      ],
      "name": "AuthenticationFail",
      "type": "event"
    },
    {
      "anonymous": false,
      "inputs": [
        {
          "indexed": false,
          "name": "requestID",
          "type": "address"
        },
        {
          "indexed": false,
          "name": "idpAddress",
          "type": "address"
        },
        {
          "indexed": false,
          "name": "code",
          "type": "uint256"
        },
        {
          "indexed": false,
          "name": "message",
          "type": "bytes32"
        }
      ],
      "name": "IdpResponse",
      "type": "event"
    }
  ],
  "bytecode": "0x606060405260008055341561001357600080fd5b612321806100226000396000f300606060405260043610610062576000357c0100000000000000000000000000000000000000000000000000000000900463ffffffff1680632e0131d2146100675780633fad1834146100b6578063b24d82c0146100df578063c58343ef1461019b575b600080fd5b341561007257600080fd5b6100b4600480803573ffffffffffffffffffffffffffffffffffffffff16906020019091908035906020019091908035600019169060200190919050506101fe565b005b34156100c157600080fd5b6100c961037e565b6040518082815260200191505060405180910390f35b34156100ea57600080fd5b610159600480803573ffffffffffffffffffffffffffffffffffffffff1690602001909190803590602001908201803590602001908080601f0160208091040260200160405190810160405280939291908181526020018383808284378201915050505050509190505061038b565b604051808273ffffffffffffffffffffffffffffffffffffffff1673ffffffffffffffffffffffffffffffffffffffff16815260200191505060405180910390f35b34156101a657600080fd5b6101bc6004808035906020019091905050610865565b604051808273ffffffffffffffffffffffffffffffffffffffff1673ffffffffffffffffffffffffffffffffffffffff16815260200191505060405180910390f35b60008390508073ffffffffffffffffffffffffffffffffffffffff16632e0131d23385856040518463ffffffff167c0100000000000000000000000000000000000000000000000000000000028152600401808473ffffffffffffffffffffffffffffffffffffffff1673ffffffffffffffffffffffffffffffffffffffff16815260200183815260200182600019166000191681526020019350505050600060405180830381600087803b15156102b557600080fd5b6102c65a03f115156102c657600080fd5b5050507ff5363b8a8c99fbb16b490ec95b90d59214ff79119f865e6518eb85e605ddb9ba81338585604051808573ffffffffffffffffffffffffffffffffffffffff1673ffffffffffffffffffffffffffffffffffffffff1681526020018473ffffffffffffffffffffffffffffffffffffffff1673ffffffffffffffffffffffffffffffffffffffff168152602001838152602001826000191660001916815260200194505050505060405180910390a150505050565b6000600180549050905090565b60006103956108a9565b61039d6108a9565b6103a56108bd565b60006103af6108d1565b604051809103906000f08015156103c557600080fd5b90508073ffffffffffffffffffffffffffffffffffffffff1663ed8164a33389858a89896040518763ffffffff167c0100000000000000000000000000000000000000000000000000000000028152600401808773ffffffffffffffffffffffffffffffffffffffff1673ffffffffffffffffffffffffffffffffffffffff1681526020018673ffffffffffffffffffffffffffffffffffffffff1673ffffffffffffffffffffffffffffffffffffffff16815260200180602001806020018060200180602001858103855289818151815260200191508051906020019080838360005b838110156104c45780820151818401526020810190506104a9565b50505050905090810190601f1680156104f15780820380516001836020036101000a031916815260200191505b50858103845288818151815260200191508051906020019080838360005b8381101561052a57808201518184015260208101905061050f565b50505050905090810190601f1680156105575780820380516001836020036101000a031916815260200191505b50858103835287818151815260200191508051906020019060200280838360005b83811015610593578082015181840152602081019050610578565b50505050905001858103825286818151815260200191508051906020019060200280838360005b838110156105d55780820151818401526020810190506105ba565b505050509050019a5050505050505050505050600060405180830381600087803b151561060157600080fd5b6102c65a03f1151561061257600080fd5b505050600180805480600101828161062a91906108e1565b9160005260206000209001600084909190916101000a81548173ffffffffffffffffffffffffffffffffffffffff021916908373ffffffffffffffffffffffffffffffffffffffff160217905550036000819055507f0146ef8097a3e385ef0d35f9206154fd11e77892f5bcbca7929dbdaa56c39e4433888884604051808573ffffffffffffffffffffffffffffffffffffffff1673ffffffffffffffffffffffffffffffffffffffff1681526020018473ffffffffffffffffffffffffffffffffffffffff1673ffffffffffffffffffffffffffffffffffffffff168152602001806020018373ffffffffffffffffffffffffffffffffffffffff1673ffffffffffffffffffffffffffffffffffffffff168152602001828103825284818151815260200191508051906020019080838360005b8381101561077a57808201518184015260208101905061075f565b50505050905090810190601f1680156107a75780820380516001836020036101000a031916815260200191505b509550505050505060405180910390a17fc5a577c975ac80537ea55737e01ed9f3a9644bf80ce2e8dbbe8ae2921b976e163382600054604051808473ffffffffffffffffffffffffffffffffffffffff1673ffffffffffffffffffffffffffffffffffffffff1681526020018373ffffffffffffffffffffffffffffffffffffffff1673ffffffffffffffffffffffffffffffffffffffff168152602001828152602001935050505060405180910390a18094505050505092915050565b600060018281548110151561087657fe5b906000526020600020900160009054906101000a900473ffffffffffffffffffffffffffffffffffffffff169050919050565b602060405190810160405280600081525090565b602060405190810160405280600081525090565b6040516119c38061093383390190565b81548183558181151161090857818360005260206000209182019101610907919061090d565b5b505050565b61092f91905b8082111561092b576000816000905550600101610913565b5090565b9056006060604052341561000f57600080fd5b6119a58061001e6000396000f3006060604052600436106100c5576000357c0100000000000000000000000000000000000000000000000000000000900463ffffffff1680631415f1e7146100ca57806316072b34146101585780632e0131d2146101bb578063438895a71461020a578063574a0e16146102985780638934703c146102ed578063951a6bc414610342578063b03d008414610397578063c36dfdb3146103fa578063c439cc0714610488578063e4128fb3146104b5578063ed8164a31461050a578063f998292a14610668575b600080fd5b34156100d557600080fd5b6100dd6106c5565b6040518080602001828103825283818151815260200191508051906020019080838360005b8381101561011d578082015181840152602081019050610102565b50505050905090810190601f16801561014a5780820380516001836020036101000a031916815260200191505b509250505060405180910390f35b341561016357600080fd5b6101796004808035906020019091905050610763565b604051808273ffffffffffffffffffffffffffffffffffffffff1673ffffffffffffffffffffffffffffffffffffffff16815260200191505060405180910390f35b34156101c657600080fd5b610208600480803573ffffffffffffffffffffffffffffffffffffffff16906020019091908035906020019091908035600019169060200190919050506107a2565b005b341561021557600080fd5b61021d610af6565b6040518080602001828103825283818151815260200191508051906020019080838360005b8381101561025d578082015181840152602081019050610242565b50505050905090810190601f16801561028a5780820380516001836020036101000a031916815260200191505b509250505060405180910390f35b34156102a357600080fd5b6102ab610b94565b604051808273ffffffffffffffffffffffffffffffffffffffff1673ffffffffffffffffffffffffffffffffffffffff16815260200191505060405180910390f35b34156102f857600080fd5b610300610bba565b604051808273ffffffffffffffffffffffffffffffffffffffff1673ffffffffffffffffffffffffffffffffffffffff16815260200191505060405180910390f35b341561034d57600080fd5b610355610bdf565b604051808273ffffffffffffffffffffffffffffffffffffffff1673ffffffffffffffffffffffffffffffffffffffff16815260200191505060405180910390f35b34156103a257600080fd5b6103b86004808035906020019091905050610c09565b604051808273ffffffffffffffffffffffffffffffffffffffff1673ffffffffffffffffffffffffffffffffffffffff16815260200191505060405180910390f35b341561040557600080fd5b61040d610c48565b6040518080602001828103825283818151815260200191508051906020019080838360005b8381101561044d578082015181840152602081019050610432565b50505050905090810190601f16801561047a5780820380516001836020036101000a031916815260200191505b509250505060405180910390f35b341561049357600080fd5b61049b610ce6565b604051808215151515815260200191505060405180910390f35b34156104c057600080fd5b6104c8610cf9565b604051808273ffffffffffffffffffffffffffffffffffffffff1673ffffffffffffffffffffffffffffffffffffffff16815260200191505060405180910390f35b341561051557600080fd5b610666600480803573ffffffffffffffffffffffffffffffffffffffff1690602001909190803573ffffffffffffffffffffffffffffffffffffffff1690602001909190803590602001908201803590602001908080601f0160208091040260200160405190810160405280939291908181526020018383808284378201915050505050509190803590602001908201803590602001908080601f016020809104026020016040519081016040528093929190818152602001838380828437820191505050505050919080359060200190820180359060200190808060200260200160405190810160405280939291908181526020018383602002808284378201915050505050509190803590602001908201803590602001908080602002602001604051908101604052809392919081815260200183836020028082843782019150505050505091905050610d1f565b005b341561067357600080fd5b6106c3600480803590602001908201803590602001908080601f01602080910402602001604051908101604052809392919081815260200183838082843782019150505050505091905050611027565b005b60048054600181600116156101000203166002900480601f01602080910402602001604051908101604052809291908181526020018280546001816001161561010002031660029004801561075b5780601f106107305761010080835404028352916020019161075b565b820191906000526020600020905b81548152906001019060200180831161073e57829003601f168201915b505050505081565b60068181548110151561077257fe5b90600052602060002090016000915054906101000a900473ffffffffffffffffffffffffffffffffffffffff1681565b600860009054906101000a900473ffffffffffffffffffffffffffffffffffffffff1673ffffffffffffffffffffffffffffffffffffffff16636f6620f48484846000604051602001526040518463ffffffff167c0100000000000000000000000000000000000000000000000000000000028152600401808473ffffffffffffffffffffffffffffffffffffffff1673ffffffffffffffffffffffffffffffffffffffff16815260200183815260200182600019166000191681526020019350505050602060405180830381600087803b151561087f57600080fd5b6102c65a03f1151561089057600080fd5b50505060405180519050507fce866c0f2c83aff25c85030e7aceff674cf51b0024cb26ffd2bf61b1e2bd515c838383604051808473ffffffffffffffffffffffffffffffffffffffff1673ffffffffffffffffffffffffffffffffffffffff1681526020018381526020018260001916600019168152602001935050505060405180910390a1600b60009054906101000a900473ffffffffffffffffffffffffffffffffffffffff1673ffffffffffffffffffffffffffffffffffffffff1662c330a7600860009054906101000a900473ffffffffffffffffffffffffffffffffffffffff166000604051602001526040518263ffffffff167c0100000000000000000000000000000000000000000000000000000000028152600401808273ffffffffffffffffffffffffffffffffffffffff1673ffffffffffffffffffffffffffffffffffffffff168152602001915050602060405180830381600087803b15156109fc57600080fd5b6102c65a03f11515610a0d57600080fd5b5050506040518051905015610af1576001600560006101000a81548160ff0219169083151502179055507f57b624b56afe49634dcc2f7b0358380de08c219278fc520dbf237208bc11b36630600b60009054906101000a900473ffffffffffffffffffffffffffffffffffffffff16604051808373ffffffffffffffffffffffffffffffffffffffff1673ffffffffffffffffffffffffffffffffffffffff1681526020018273ffffffffffffffffffffffffffffffffffffffff1673ffffffffffffffffffffffffffffffffffffffff1681526020019250505060405180910390a15b505050565b60038054600181600116156101000203166002900480601f016020809104026020016040519081016040528092919081815260200182805460018160011615610100020316600290048015610b8c5780601f10610b6157610100808354040283529160200191610b8c565b820191906000526020600020905b815481529060010190602001808311610b6f57829003601f168201915b505050505081565b600860009054906101000a900473ffffffffffffffffffffffffffffffffffffffff1681565b6000809054906101000a900473ffffffffffffffffffffffffffffffffffffffff1681565b6000600860009054906101000a900473ffffffffffffffffffffffffffffffffffffffff16905090565b600781815481101515610c1857fe5b90600052602060002090016000915054906101000a900473ffffffffffffffffffffffffffffffffffffffff1681565b60098054600181600116156101000203166002900480601f016020809104026020016040519081016040528092919081815260200182805460018160011615610100020316600290048015610cde5780601f10610cb357610100808354040283529160200191610cde565b820191906000526020600020905b815481529060010190602001808311610cc157829003601f168201915b505050505081565b600560009054906101000a900460ff1681565b600160009054906101000a900473ffffffffffffffffffffffffffffffffffffffff1681565b856000806101000a81548173ffffffffffffffffffffffffffffffffffffffff021916908373ffffffffffffffffffffffffffffffffffffffff16021790555084600160006101000a81548173ffffffffffffffffffffffffffffffffffffffff021916908373ffffffffffffffffffffffffffffffffffffffff1602179055508360039080519060200190610db6929190611041565b508260049080519060200190610dcd929190611041565b508160069080519060200190610de49291906110c1565b508060079080519060200190610dfb9291906110c1565b50600160009054906101000a900473ffffffffffffffffffffffffffffffffffffffff16600260006101000a81548173ffffffffffffffffffffffffffffffffffffffff021916908373ffffffffffffffffffffffffffffffffffffffff160217905550600260009054906101000a900473ffffffffffffffffffffffffffffffffffffffff1673ffffffffffffffffffffffffffffffffffffffff1663c2dd550f6000604051602001526040518163ffffffff167c0100000000000000000000000000000000000000000000000000000000028152600401602060405180830381600087803b1515610eed57600080fd5b6102c65a03f11515610efe57600080fd5b50505060405180519050600b60006101000a81548173ffffffffffffffffffffffffffffffffffffffff021916908373ffffffffffffffffffffffffffffffffffffffff160217905550600073ffffffffffffffffffffffffffffffffffffffff16600b60009054906101000a900473ffffffffffffffffffffffffffffffffffffffff1673ffffffffffffffffffffffffffffffffffffffff1614151515610fa657600080fd5b6000600560006101000a81548160ff021916908315150217905550610fc961114b565b604051809103906000f0801515610fdf57600080fd5b600860006101000a81548173ffffffffffffffffffffffffffffffffffffffff021916908373ffffffffffffffffffffffffffffffffffffffff160217905550505050505050565b806009908051906020019061103d929190611041565b5050565b828054600181600116156101000203166002900490600052602060002090601f016020900481019282601f1061108257805160ff19168380011785556110b0565b828001600101855582156110b0579182015b828111156110af578251825591602001919060010190611094565b5b5090506110bd919061115b565b5090565b82805482825590600052602060002090810192821561113a579160200282015b828111156111395782518260006101000a81548173ffffffffffffffffffffffffffffffffffffffff021916908373ffffffffffffffffffffffffffffffffffffffff160217905550916020019190600101906110e1565b5b5090506111479190611180565b5090565b6040516107b6806111c483390190565b61117d91905b80821115611179576000816000905550600101611161565b5090565b90565b6111c091905b808211156111bc57600081816101000a81549073ffffffffffffffffffffffffffffffffffffffff021916905550600101611186565b5090565b9056006060604052341561000f57600080fd5b33600260006101000a81548173ffffffffffffffffffffffffffffffffffffffff021916908373ffffffffffffffffffffffffffffffffffffffff1602179055506107578061005f6000396000f300606060405260043610610078576000357c0100000000000000000000000000000000000000000000000000000000900463ffffffff168063130c17111461007d578063433a05b0146100a65780634dbc5f58146101025780636f6620f4146101395780637fc7349b1461019c578063c172d2c9146101d0575b600080fd5b341561008857600080fd5b610090610216565b6040518082815260200191505060405180910390f35b34156100b157600080fd5b6100dd600480803573ffffffffffffffffffffffffffffffffffffffff16906020019091905050610223565b6040518083815260200182600019166000191681526020019250505060405180910390f35b341561010d57600080fd5b61012360048080359060200190919050506102b3565b6040518082815260200191505060405180910390f35b341561014457600080fd5b610186600480803573ffffffffffffffffffffffffffffffffffffffff1690602001909190803590602001909190803560001916906020019091905050610338565b6040518082815260200191505060405180910390f35b34156101a757600080fd5b6101af61053a565b60405180831515151581526020018281526020019250505060405180910390f35b34156101db57600080fd5b6101f160048080359060200190919050506105d6565b6040518083815260200182600019166000191681526020019250505060405180910390f35b6000600180549050905090565b6000806000808473ffffffffffffffffffffffffffffffffffffffff1673ffffffffffffffffffffffffffffffffffffffff168152602001908152602001600020600001546000808573ffffffffffffffffffffffffffffffffffffffff1673ffffffffffffffffffffffffffffffffffffffff1681526020019081526020016000206001015491509150915091565b60008060006001848154811015156102c757fe5b906000526020600020900160009054906101000a900473ffffffffffffffffffffffffffffffffffffffff1673ffffffffffffffffffffffffffffffffffffffff1673ffffffffffffffffffffffffffffffffffffffff168152602001908152602001600020600001549050919050565b6000600260009054906101000a900473ffffffffffffffffffffffffffffffffffffffff1673ffffffffffffffffffffffffffffffffffffffff163373ffffffffffffffffffffffffffffffffffffffff16141561053257826000808673ffffffffffffffffffffffffffffffffffffffff1673ffffffffffffffffffffffffffffffffffffffff16815260200190815260200160002060000181905550816000808673ffffffffffffffffffffffffffffffffffffffff1673ffffffffffffffffffffffffffffffffffffffff1681526020019081526020016000206001018160001916905550600180805480600101828161043591906106da565b9160005260206000209001600087909190916101000a81548173ffffffffffffffffffffffffffffffffffffffff021916908373ffffffffffffffffffffffffffffffffffffffff160217905550036000808673ffffffffffffffffffffffffffffffffffffffff1673ffffffffffffffffffffffffffffffffffffffff1681526020019081526020016000206002018190555060016000808673ffffffffffffffffffffffffffffffffffffffff1673ffffffffffffffffffffffffffffffffffffffff16815260200190815260200160002060030160006101000a81548160ff02191690831515021790555060018080549050039050610533565b5b9392505050565b6000806000803373ffffffffffffffffffffffffffffffffffffffff1673ffffffffffffffffffffffffffffffffffffffff16815260200190815260200160002060030160009054906101000a900460ff166000803373ffffffffffffffffffffffffffffffffffffffff1673ffffffffffffffffffffffffffffffffffffffff16815260200190815260200160002060000154915091509091565b6000806000806001858154811015156105eb57fe5b906000526020600020900160009054906101000a900473ffffffffffffffffffffffffffffffffffffffff1673ffffffffffffffffffffffffffffffffffffffff1673ffffffffffffffffffffffffffffffffffffffff1681526020019081526020016000206000015460008060018681548110151561066757fe5b906000526020600020900160009054906101000a900473ffffffffffffffffffffffffffffffffffffffff1673ffffffffffffffffffffffffffffffffffffffff1673ffffffffffffffffffffffffffffffffffffffff1681526020019081526020016000206001015491509150915091565b815481835581811511610701578183600052602060002091820191016107009190610706565b5b505050565b61072891905b8082111561072457600081600090555060010161070c565b5090565b905600a165627a7a7230582031274216be484d16f8d5b5694a80c164f2ce7053ce6003408642371ef6b0d5640029a165627a7a72305820dfce4e4d7beaa67b7214af00a017650e9704ea02821818ccdebfdeb696fcec360029a165627a7a72305820d423bf9b2ca54821547f39f7548db1dafb8a66effb675ff02969b838f3071fc00029",
  "source": "pragma solidity ^0.4.17;\n\nimport \"./Request.sol\";\n\ncontract Requests {\n\n  uint requestIndex = 0;\n  Request[] requestContracts;\n\n  event LogNewRequest(address rpAddress, address requestContract, uint index);\n  event LogRequest(address rpAddress, address userAddress, string requestText,\n    address requestID);\n\n  function createRequest(\n    address _userAddress,\n    // The _requestText is temporary. It will be moved to stay out of the\n    // request later.\n    string _requestText\n    ) public returns (Request requestID) {\n        \n    address[] memory idpAddressList;\n    address[] memory asServiceAddressList;\n    string memory rpCondition;\n    Request requestContract;\n    requestContract = new Request();\n    requestContract.newRequest(msg.sender, _userAddress, rpCondition,\n                               _requestText, idpAddressList,\n                               asServiceAddressList);\n    requestIndex = requestContracts.push(requestContract) - 1;\n    // Create request event.\n    LogRequest(msg.sender, _userAddress, _requestText, requestContract);\n    // Create new request event.\n    LogNewRequest(msg.sender, requestContract, requestIndex); \n    return requestContract;\n  }\n\n  function getRequestCount() public view returns (uint count) {\n    return requestContracts.length;\n  }\n\n  function getRequest(uint index) public view returns (Request request) {\n    return requestContracts[index];\n  }\n\n  function addIdpResponse(address requestID, uint code, bytes32 message) public {\n    // TODO: Check if the sender is the valid IDP.\n    Request requestContract = Request(requestID);\n    requestContract.addIdpResponse(msg.sender, code, message);\n    IdpResponse(requestContract, msg.sender, code, message);\n  }\n\n  event AuthenticationComplete(address requestID, string code, string message);\n  event AuthenticationFail(address requestID, string code, string message);\n  event IdpResponse(address requestID, address idpAddress, \n                    uint code, bytes32 message);\n}\n",
  "sourcePath": "/Users/tanee/verde-all/verde-ethereum/contracts/Requests.sol",
  "compiler": {
    "name": "solc",
    "version": "0.4.18+commit.9cf6e910.Emscripten.clang"
  },
  "schemaVersion": "1.0.1",
  "updatedAt": "2018-02-24T08:24:41.654Z"
}