{
  "contractName": "Response",
  "abi": [
    {
      "constant": true,
      "inputs": [],
      "name": "getResponseCount",
      "outputs": [
        {
          "name": "count",
          "type": "uint256"
        }
      ],
      "payable": false,
      "stateMutability": "view",
      "type": "function"
    },
    {
      "constant": true,
      "inputs": [
        {
          "name": "_responder",
          "type": "address"
        }
      ],
      "name": "getResponse",
      "outputs": [
        {
          "name": "code",
          "type": "uint256"
        },
        {
          "name": "message",
          "type": "bytes32"
        }
      ],
      "payable": false,
      "stateMutability": "view",
      "type": "function"
    },
    {
      "constant": true,
      "inputs": [
        {
          "name": "index",
          "type": "uint256"
        }
      ],
      "name": "getResponseCodeAtIndex",
      "outputs": [
        {
          "name": "code",
          "type": "uint256"
        }
      ],
      "payable": false,
      "stateMutability": "view",
      "type": "function"
    },
    {
      "constant": false,
      "inputs": [
        {
          "name": "_responder",
          "type": "address"
        },
        {
          "name": "_code",
          "type": "uint256"
        },
        {
          "name": "_message",
          "type": "bytes32"
        }
      ],
      "name": "addResponse",
      "outputs": [
        {
          "name": "index",
          "type": "uint256"
        }
      ],
      "payable": false,
      "stateMutability": "nonpayable",
      "type": "function"
    },
    {
      "constant": true,
      "inputs": [],
      "name": "didIRespond",
      "outputs": [
        {
          "name": "",
          "type": "bool"
        },
        {
          "name": "",
          "type": "uint256"
        }
      ],
      "payable": false,
      "stateMutability": "view",
      "type": "function"
    },
    {
      "constant": true,
      "inputs": [
        {
          "name": "index",
          "type": "uint256"
        }
      ],
      "name": "getResponseAtIndex",
      "outputs": [
        {
          "name": "code",
          "type": "uint256"
        },
        {
          "name": "message",
          "type": "bytes32"
        }
      ],
      "payable": false,
      "stateMutability": "view",
      "type": "function"
    },
    {
      "inputs": [],
      "payable": false,
      "stateMutability": "nonpayable",
      "type": "constructor"
    }
  ],
  "bytecode": "0x6060604052341561000f57600080fd5b33600260006101000a81548173ffffffffffffffffffffffffffffffffffffffff021916908373ffffffffffffffffffffffffffffffffffffffff1602179055506107578061005f6000396000f300606060405260043610610078576000357c0100000000000000000000000000000000000000000000000000000000900463ffffffff168063130c17111461007d578063433a05b0146100a65780634dbc5f58146101025780636f6620f4146101395780637fc7349b1461019c578063c172d2c9146101d0575b600080fd5b341561008857600080fd5b610090610216565b6040518082815260200191505060405180910390f35b34156100b157600080fd5b6100dd600480803573ffffffffffffffffffffffffffffffffffffffff16906020019091905050610223565b6040518083815260200182600019166000191681526020019250505060405180910390f35b341561010d57600080fd5b61012360048080359060200190919050506102b3565b6040518082815260200191505060405180910390f35b341561014457600080fd5b610186600480803573ffffffffffffffffffffffffffffffffffffffff1690602001909190803590602001909190803560001916906020019091905050610338565b6040518082815260200191505060405180910390f35b34156101a757600080fd5b6101af61053a565b60405180831515151581526020018281526020019250505060405180910390f35b34156101db57600080fd5b6101f160048080359060200190919050506105d6565b6040518083815260200182600019166000191681526020019250505060405180910390f35b6000600180549050905090565b6000806000808473ffffffffffffffffffffffffffffffffffffffff1673ffffffffffffffffffffffffffffffffffffffff168152602001908152602001600020600001546000808573ffffffffffffffffffffffffffffffffffffffff1673ffffffffffffffffffffffffffffffffffffffff1681526020019081526020016000206001015491509150915091565b60008060006001848154811015156102c757fe5b906000526020600020900160009054906101000a900473ffffffffffffffffffffffffffffffffffffffff1673ffffffffffffffffffffffffffffffffffffffff1673ffffffffffffffffffffffffffffffffffffffff168152602001908152602001600020600001549050919050565b6000600260009054906101000a900473ffffffffffffffffffffffffffffffffffffffff1673ffffffffffffffffffffffffffffffffffffffff163373ffffffffffffffffffffffffffffffffffffffff16141561053257826000808673ffffffffffffffffffffffffffffffffffffffff1673ffffffffffffffffffffffffffffffffffffffff16815260200190815260200160002060000181905550816000808673ffffffffffffffffffffffffffffffffffffffff1673ffffffffffffffffffffffffffffffffffffffff1681526020019081526020016000206001018160001916905550600180805480600101828161043591906106da565b9160005260206000209001600087909190916101000a81548173ffffffffffffffffffffffffffffffffffffffff021916908373ffffffffffffffffffffffffffffffffffffffff160217905550036000808673ffffffffffffffffffffffffffffffffffffffff1673ffffffffffffffffffffffffffffffffffffffff1681526020019081526020016000206002018190555060016000808673ffffffffffffffffffffffffffffffffffffffff1673ffffffffffffffffffffffffffffffffffffffff16815260200190815260200160002060030160006101000a81548160ff02191690831515021790555060018080549050039050610533565b5b9392505050565b6000806000803373ffffffffffffffffffffffffffffffffffffffff1673ffffffffffffffffffffffffffffffffffffffff16815260200190815260200160002060030160009054906101000a900460ff166000803373ffffffffffffffffffffffffffffffffffffffff1673ffffffffffffffffffffffffffffffffffffffff16815260200190815260200160002060000154915091509091565b6000806000806001858154811015156105eb57fe5b906000526020600020900160009054906101000a900473ffffffffffffffffffffffffffffffffffffffff1673ffffffffffffffffffffffffffffffffffffffff1673ffffffffffffffffffffffffffffffffffffffff1681526020019081526020016000206000015460008060018681548110151561066757fe5b906000526020600020900160009054906101000a900473ffffffffffffffffffffffffffffffffffffffff1673ffffffffffffffffffffffffffffffffffffffff1673ffffffffffffffffffffffffffffffffffffffff1681526020019081526020016000206001015491509150915091565b815481835581811511610701578183600052602060002091820191016107009190610706565b5b505050565b61072891905b8082111561072457600081600090555060010161070c565b5090565b905600a165627a7a7230582031274216be484d16f8d5b5694a80c164f2ce7053ce6003408642371ef6b0d5640029",
  "source": "pragma solidity ^0.4.17;\n\ncontract Response {\n  struct ResponseStruct {\n    uint code;\n    bytes32 message;\n    uint index;\n    bool isAnswered;\n  }\n\n  mapping(address => ResponseStruct) private responseStructs;\n  address[] responses;\n  address private requestOwner;\n\n  function Response() public {\n    requestOwner = msg.sender;\n  }\n\n  function addResponse(address _responder, uint _code, bytes32 _message) \n      public returns(uint index) {\n    if(msg.sender == requestOwner) {\n      responseStructs[_responder].code = _code;\n      responseStructs[_responder].message = _message;\n      responseStructs[_responder].index = responses.push(_responder) - 1;\n      responseStructs[_responder].isAnswered = true;\n      return responses.length - 1;\n    }\n  }\n\n  function didIRespond() public view returns (bool, uint) {\n    return (responseStructs[msg.sender].isAnswered,\n          responseStructs[msg.sender].code);\n  }\n\n  function getResponseCount() public view returns(uint count) {\n    return responses.length;\n  }\n\n  function getResponseAtIndex(uint index) \n      public view returns(uint code, bytes32 message) {\n    return (responseStructs[responses[index]].code,\n            responseStructs[responses[index]].message);\n  }\n\n  function getResponseCodeAtIndex(uint index) \n      public view returns(uint code) {\n    return (responseStructs[responses[index]].code);\n  }\n\n  function getResponse(address _responder) public view\n      returns(uint code, bytes32 message) {\n    return (responseStructs[_responder].code,\n            responseStructs[_responder].message);\n  }\n}\n",
  "sourcePath": "/Users/tanee/verde-all/verde-ethereum/contracts/Response.sol",
  "compiler": {
    "name": "solc",
    "version": "0.4.18+commit.9cf6e910.Emscripten.clang"
  },
  "schemaVersion": "1.0.1",
  "updatedAt": "2018-02-24T08:55:52.386Z"
}