{
  "contractName": "UserDirectory",
  "abi": [
    {
      "constant": true,
      "inputs": [],
      "name": "userCount",
      "outputs": [
        {
          "name": "",
          "type": "uint256"
        }
      ],
      "payable": false,
      "stateMutability": "view",
      "type": "function"
    },
    {
      "constant": true,
      "inputs": [
        {
          "name": "_namespace",
          "type": "string"
        },
        {
          "name": "_id",
          "type": "string"
        }
      ],
      "name": "findUserByNamespaceAndId",
      "outputs": [
        {
          "name": "user",
          "type": "address"
        }
      ],
      "payable": false,
      "stateMutability": "view",
      "type": "function"
    },
    {
      "constant": false,
      "inputs": [
        {
          "name": "_owner",
          "type": "address"
        },
        {
          "name": "_namespace",
          "type": "string"
        },
        {
          "name": "_id",
          "type": "string"
        }
      ],
      "name": "newUser",
      "outputs": [],
      "payable": false,
      "stateMutability": "nonpayable",
      "type": "function"
    },
    {
      "inputs": [],
      "payable": false,
      "stateMutability": "nonpayable",
      "type": "constructor"
    },
    {
      "anonymous": false,
      "inputs": [
        {
          "indexed": false,
          "name": "namespace",
          "type": "string"
        },
        {
          "indexed": false,
          "name": "id",
          "type": "string"
        },
        {
          "indexed": false,
          "name": "userContract",
          "type": "address"
        }
      ],
      "name": "LogNewUser",
      "type": "event"
    }
  ],
  "bytecode": "0x6060604052341561000f57600080fd5b6000600181905550611580806100266000396000f300606060405260043610610057576000357c0100000000000000000000000000000000000000000000000000000000900463ffffffff16806307973ccf1461005c57806348296798146100855780634a746d0514610165575b600080fd5b341561006757600080fd5b61006f610224565b6040518082815260200191505060405180910390f35b341561009057600080fd5b610123600480803590602001908201803590602001908080601f0160208091040260200160405190810160405280939291908181526020018383808284378201915050505050509190803590602001908201803590602001908080601f0160208091040260200160405190810160405280939291908181526020018383808284378201915050505050509190505061022a565b604051808273ffffffffffffffffffffffffffffffffffffffff1673ffffffffffffffffffffffffffffffffffffffff16815260200191505060405180910390f35b341561017057600080fd5b610222600480803573ffffffffffffffffffffffffffffffffffffffff1690602001909190803590602001908201803590602001908080601f0160208091040260200160405190810160405280939291908181526020018383808284378201915050505050509190803590602001908201803590602001908080601f0160208091040260200160405190810160405280939291908181526020018383808284378201915050505050509190505061032b565b005b60015481565b600080836040518082805190602001908083835b602083101515610263578051825260208201915060208101905060208303925061023e565b6001836020036101000a0380198251168184511680821785525050505050509050019150509081526020016040518091039020600001826040518082805190602001908083835b6020831015156102cf57805182526020820191506020810190506020830392506102aa565b6001836020036101000a038019825116818451168082178552505050505050905001915050908152602001604051809103902060009054906101000a900473ffffffffffffffffffffffffffffffffffffffff16905092915050565b60008061033661081c565b604051809103906000f080151561034c57600080fd5b9150600161035861082c565b80828152602001915050604051809103906000f080151561037857600080fd5b90508173ffffffffffffffffffffffffffffffffffffffff16634a746d058686866040518463ffffffff167c0100000000000000000000000000000000000000000000000000000000028152600401808473ffffffffffffffffffffffffffffffffffffffff1673ffffffffffffffffffffffffffffffffffffffff1681526020018060200180602001838103835285818151815260200191508051906020019080838360005b8381101561043a57808201518184015260208101905061041f565b50505050905090810190601f1680156104675780820380516001836020036101000a031916815260200191505b50838103825284818151815260200191508051906020019080838360005b838110156104a0578082015181840152602081019050610485565b50505050905090810190601f1680156104cd5780820380516001836020036101000a031916815260200191505b5095505050505050600060405180830381600087803b15156104ee57600080fd5b6102c65a03f115156104ff57600080fd5b5050508173ffffffffffffffffffffffffffffffffffffffff1663ef692b09826040518263ffffffff167c0100000000000000000000000000000000000000000000000000000000028152600401808273ffffffffffffffffffffffffffffffffffffffff1673ffffffffffffffffffffffffffffffffffffffff168152602001915050600060405180830381600087803b151561059c57600080fd5b6102c65a03f115156105ad57600080fd5b505050816000856040518082805190602001908083835b6020831015156105e957805182526020820191506020810190506020830392506105c4565b6001836020036101000a0380198251168184511680821785525050505050509050019150509081526020016040518091039020600001846040518082805190602001908083835b6020831015156106555780518252602082019150602081019050602083039250610630565b6001836020036101000a038019825116818451168082178552505050505050905001915050908152602001604051809103902060006101000a81548173ffffffffffffffffffffffffffffffffffffffff021916908373ffffffffffffffffffffffffffffffffffffffff1602179055506001600081548092919060010191905055507fab0a0f9faff28c5a23c966617c0f22dd77a228fedeb55b947b717f201fb1ba8b8484846040518080602001806020018473ffffffffffffffffffffffffffffffffffffffff1673ffffffffffffffffffffffffffffffffffffffff168152602001838103835286818151815260200191508051906020019080838360005b83811015610772578082015181840152602081019050610757565b50505050905090810190601f16801561079f5780820380516001836020036101000a031916815260200191505b50838103825285818151815260200191508051906020019080838360005b838110156107d85780820151818401526020810190506107bd565b50505050905090810190601f1680156108055780820380516001836020036101000a031916815260200191505b509550505050505060405180910390a15050505050565b604051610a278061083d83390190565b6040516102f1806112648339019056006060604052341561000f57600080fd5b610a098061001e6000396000f3006060604052600436106100c5576000357c0100000000000000000000000000000000000000000000000000000000900463ffffffff16806306fdde03146100ca57806316072b3414610158578063200d2ed2146101bb5780634a746d05146101e45780634eb5f17a146102a357806369ba1a75146103065780637c015a89146103295780638da5cb5b146103b7578063af640d0f1461040c578063c19d93fb1461049a578063c2dd550f146104c3578063c47f002714610518578063ef692b0914610575575b600080fd5b34156100d557600080fd5b6100dd6105ae565b6040518080602001828103825283818151815260200191508051906020019080838360005b8381101561011d578082015181840152602081019050610102565b50505050905090810190601f16801561014a5780820380516001836020036101000a031916815260200191505b509250505060405180910390f35b341561016357600080fd5b610179600480803590602001909190505061064c565b604051808273ffffffffffffffffffffffffffffffffffffffff1673ffffffffffffffffffffffffffffffffffffffff16815260200191505060405180910390f35b34156101c657600080fd5b6101ce61068b565b6040518082815260200191505060405180910390f35b34156101ef57600080fd5b6102a1600480803573ffffffffffffffffffffffffffffffffffffffff1690602001909190803590602001908201803590602001908080601f0160208091040260200160405190810160405280939291908181526020018383808284378201915050505050509190803590602001908201803590602001908080601f01602080910402602001604051908101604052809392919081815260200183838082843782019150505050505091905050610691565b005b34156102ae57600080fd5b6102c46004808035906020019091905050610704565b604051808273ffffffffffffffffffffffffffffffffffffffff1673ffffffffffffffffffffffffffffffffffffffff16815260200191505060405180910390f35b341561031157600080fd5b6103276004808035906020019091905050610743565b005b341561033457600080fd5b61033c61074d565b6040518080602001828103825283818151815260200191508051906020019080838360005b8381101561037c578082015181840152602081019050610361565b50505050905090810190601f1680156103a95780820380516001836020036101000a031916815260200191505b509250505060405180910390f35b34156103c257600080fd5b6103ca6107eb565b604051808273ffffffffffffffffffffffffffffffffffffffff1673ffffffffffffffffffffffffffffffffffffffff16815260200191505060405180910390f35b341561041757600080fd5b61041f610810565b6040518080602001828103825283818151815260200191508051906020019080838360005b8381101561045f578082015181840152602081019050610444565b50505050905090810190601f16801561048c5780820380516001836020036101000a031916815260200191505b509250505060405180910390f35b34156104a557600080fd5b6104ad6108ae565b6040518082815260200191505060405180910390f35b34156104ce57600080fd5b6104d66108b4565b604051808273ffffffffffffffffffffffffffffffffffffffff1673ffffffffffffffffffffffffffffffffffffffff16815260200191505060405180910390f35b341561052357600080fd5b610573600480803590602001908201803590602001908080601f016020809104026020016040519081016040528093929190818152602001838380828437820191505050505050919050506108da565b005b341561058057600080fd5b6105ac600480803573ffffffffffffffffffffffffffffffffffffffff169060200190919050506108f4565b005b60048054600181600116156101000203166002900480601f0160208091040260200160405190810160405280929190818152602001828054600181600116156101000203166002900480156106445780601f1061061957610100808354040283529160200191610644565b820191906000526020600020905b81548152906001019060200180831161062757829003601f168201915b505050505081565b60058181548110151561065b57fe5b90600052602060002090016000915054906101000a900473ffffffffffffffffffffffffffffffffffffffff1681565b60075481565b826000806101000a81548173ffffffffffffffffffffffffffffffffffffffff021916908373ffffffffffffffffffffffffffffffffffffffff16021790555081600290805190602001906106e7929190610938565b5080600190805190602001906106fe929190610938565b50505050565b60068181548110151561071357fe5b90600052602060002090016000915054906101000a900473ffffffffffffffffffffffffffffffffffffffff1681565b8060078190555050565b60028054600181600116156101000203166002900480601f0160208091040260200160405190810160405280929190818152602001828054600181600116156101000203166002900480156107e35780601f106107b8576101008083540402835291602001916107e3565b820191906000526020600020905b8154815290600101906020018083116107c657829003601f168201915b505050505081565b6000809054906101000a900473ffffffffffffffffffffffffffffffffffffffff1681565b60018054600181600116156101000203166002900480601f0160208091040260200160405190810160405280929190818152602001828054600181600116156101000203166002900480156108a65780601f1061087b576101008083540402835291602001916108a6565b820191906000526020600020905b81548152906001019060200180831161088957829003601f168201915b505050505081565b60085481565b600360009054906101000a900473ffffffffffffffffffffffffffffffffffffffff1681565b80600490805190602001906108f0929190610938565b5050565b80600360006101000a81548173ffffffffffffffffffffffffffffffffffffffff021916908373ffffffffffffffffffffffffffffffffffffffff16021790555050565b828054600181600116156101000203166002900490600052602060002090601f016020900481019282601f1061097957805160ff19168380011785556109a7565b828001600101855582156109a7579182015b828111156109a657825182559160200191906001019061098b565b5b5090506109b491906109b8565b5090565b6109da91905b808211156109d65760008160009055506001016109be565b5090565b905600a165627a7a723058207389f0f8117065d815084024cec5383dc866a179523857777f4c0ddaabb0ac24002960606040526001600055341561001457600080fd5b6040516020806102f18339810160405280805190602001909190505080600081905550506102aa806100476000396000f300606060405260043610610056576000357c0100000000000000000000000000000000000000000000000000000000900463ffffffff168062c330a71461005b5780635cea68cf146100ac5780639cdfaf3b146100cf575b600080fd5b341561006657600080fd5b610092600480803573ffffffffffffffffffffffffffffffffffffffff169060200190919050506100f8565b604051808215151515815260200191505060405180910390f35b34156100b757600080fd5b6100cd600480803590602001909190505061026e565b005b34156100da57600080fd5b6100e2610278565b6040518082815260200191505060405180910390f35b60008060008060008093508573ffffffffffffffffffffffffffffffffffffffff1663130c17116000604051602001526040518163ffffffff167c0100000000000000000000000000000000000000000000000000000000028152600401602060405180830381600087803b151561016f57600080fd5b6102c65a03f1151561018057600080fd5b505050604051805190509250600091505b82821015610260578573ffffffffffffffffffffffffffffffffffffffff16634dbc5f58836000604051602001526040518263ffffffff167c010000000000000000000000000000000000000000000000000000000002815260040180828152602001915050602060405180830381600087803b151561021057600080fd5b6102c65a03f1151561022157600080fd5b5050506040518051905090506000811415610253578380600101945050600054841015156102525760019450610265565b5b8180600101925050610191565b600094505b50505050919050565b8060008190555050565b600054815600a165627a7a72305820ac764752c2c0412e6cb8e1fecc7151dc256b2a83cfd3a85d25859e472fde83590029a165627a7a72305820b5f875eb9d3dc7a8cb4d323c830ab8fd0a8b2b3f3065ada403fc1aa98ce1004a0029",
  "source": "pragma solidity ^0.4.17;\n\nimport './User.sol';\nimport './Condition.sol';\n\ncontract UserDirectory {\n\n  struct Users {\n    mapping(string => User) users;\n  }\n\n  mapping (string => Users) private _users;\n  uint public userCount;\n\n  event LogNewUser(string namespace, string id, address userContract);\n\n  function UserDirectory() public {\n    userCount = 0;\n  }\n\n  function newUser(\n    address _owner,\n    string _namespace,\n    string _id\n  ) \n    public\n  {\n    User user = new User();\n    Condition condition = new Condition(1);\n    user.newUser(_owner, _namespace, _id);\n    user.setConditionContractAddress(condition);\n    _users[_namespace].users[_id] = user;\n    userCount++;\n    // Create new user event.\n    LogNewUser(_namespace, _id, user); \n  }\n\n  function findUserByNamespaceAndId(\n    string _namespace,\n    string _id\n  ) public view returns (address user) {\n    user = _users[_namespace].users[_id];\n  }\n\n}\n",
  "sourcePath": "/Users/tanee/verde/blockchain/contracts/UserDirectory.sol",
  "compiler": {
    "name": "solc",
    "version": "0.4.18+commit.9cf6e910.Emscripten.clang"
  },
  "schemaVersion": "1.0.1",
  "updatedAt": "2018-01-31T06:56:47.814Z"
}